{
  "address": "0x697aE3C61097a2988e294Ef8aA9060D6dBd4913d",
  "abi": [
    {
      "inputs": [
        {
          "internalType": "address",
          "name": "vrfCoordinatorV2",
          "type": "address"
        },
        {
          "internalType": "uint256",
          "name": "entranceFee",
          "type": "uint256"
        },
        {
          "internalType": "bytes32",
          "name": "gasLine",
          "type": "bytes32"
        },
        {
          "internalType": "uint64",
          "name": "subscriptionId",
          "type": "uint64"
        },
        {
          "internalType": "uint32",
          "name": "callbackGaslimit",
          "type": "uint32"
        },
        {
          "internalType": "uint256",
          "name": "interval",
          "type": "uint256"
        }
      ],
      "stateMutability": "nonpayable",
      "type": "constructor"
    },
    {
      "inputs": [
        {
          "internalType": "address",
          "name": "have",
          "type": "address"
        },
        {
          "internalType": "address",
          "name": "want",
          "type": "address"
        }
      ],
      "name": "OnlyCoordinatorCanFulfill",
      "type": "error"
    },
    {
      "inputs": [],
      "name": "Raffle_NotEnoughEnter",
      "type": "error"
    },
    {
      "inputs": [],
      "name": "Raffle_NotOpen",
      "type": "error"
    },
    {
      "inputs": [],
      "name": "Raffle_TransferFailed",
      "type": "error"
    },
    {
      "inputs": [
        {
          "internalType": "uint256",
          "name": "currentBalance",
          "type": "uint256"
        },
        {
          "internalType": "uint256",
          "name": "numPlayers",
          "type": "uint256"
        },
        {
          "internalType": "uint256",
          "name": "RaffleState",
          "type": "uint256"
        }
      ],
      "name": "Raffle_UpKeepNotNeeded",
      "type": "error"
    },
    {
      "anonymous": false,
      "inputs": [
        {
          "indexed": false,
          "internalType": "address",
          "name": "indexPlayer",
          "type": "address"
        }
      ],
      "name": "RaffleEnter",
      "type": "event"
    },
    {
      "anonymous": false,
      "inputs": [
        {
          "indexed": true,
          "internalType": "uint256",
          "name": "requestId",
          "type": "uint256"
        }
      ],
      "name": "RequestedRaffleWinner",
      "type": "event"
    },
    {
      "anonymous": false,
      "inputs": [
        {
          "indexed": true,
          "internalType": "address",
          "name": "winner",
          "type": "address"
        }
      ],
      "name": "WinnerPicked",
      "type": "event"
    },
    {
      "inputs": [
        {
          "internalType": "bytes",
          "name": "",
          "type": "bytes"
        }
      ],
      "name": "checkUpkeep",
      "outputs": [
        {
          "internalType": "bool",
          "name": "upkeepNeeded",
          "type": "bool"
        },
        {
          "internalType": "bytes",
          "name": "",
          "type": "bytes"
        }
      ],
      "stateMutability": "view",
      "type": "function"
    },
    {
      "inputs": [],
      "name": "enterRaffle",
      "outputs": [],
      "stateMutability": "payable",
      "type": "function"
    },
    {
      "inputs": [],
      "name": "getEntranceFee",
      "outputs": [
        {
          "internalType": "uint256",
          "name": "",
          "type": "uint256"
        }
      ],
      "stateMutability": "view",
      "type": "function"
    },
    {
      "inputs": [],
      "name": "getInterval",
      "outputs": [
        {
          "internalType": "uint256",
          "name": "",
          "type": "uint256"
        }
      ],
      "stateMutability": "view",
      "type": "function"
    },
    {
      "inputs": [],
      "name": "getLatestTimeStamp",
      "outputs": [
        {
          "internalType": "uint256",
          "name": "",
          "type": "uint256"
        }
      ],
      "stateMutability": "view",
      "type": "function"
    },
    {
      "inputs": [],
      "name": "getNumPlayers",
      "outputs": [
        {
          "internalType": "uint256",
          "name": "",
          "type": "uint256"
        }
      ],
      "stateMutability": "view",
      "type": "function"
    },
    {
      "inputs": [],
      "name": "getNumWords",
      "outputs": [
        {
          "internalType": "uint256",
          "name": "",
          "type": "uint256"
        }
      ],
      "stateMutability": "pure",
      "type": "function"
    },
    {
      "inputs": [
        {
          "internalType": "uint256",
          "name": "index",
          "type": "uint256"
        }
      ],
      "name": "getPlayer",
      "outputs": [
        {
          "internalType": "address",
          "name": "",
          "type": "address"
        }
      ],
      "stateMutability": "view",
      "type": "function"
    },
    {
      "inputs": [],
      "name": "getRaffleState",
      "outputs": [
        {
          "internalType": "enum Raffle.RaffleState",
          "name": "",
          "type": "uint8"
        }
      ],
      "stateMutability": "view",
      "type": "function"
    },
    {
      "inputs": [],
      "name": "getRecentWinner",
      "outputs": [
        {
          "internalType": "address",
          "name": "",
          "type": "address"
        }
      ],
      "stateMutability": "view",
      "type": "function"
    },
    {
      "inputs": [
        {
          "internalType": "bytes",
          "name": "",
          "type": "bytes"
        }
      ],
      "name": "performUpkeep",
      "outputs": [],
      "stateMutability": "nonpayable",
      "type": "function"
    },
    {
      "inputs": [
        {
          "internalType": "uint256",
          "name": "requestId",
          "type": "uint256"
        },
        {
          "internalType": "uint256[]",
          "name": "randomWords",
          "type": "uint256[]"
        }
      ],
      "name": "rawFulfillRandomWords",
      "outputs": [],
      "stateMutability": "nonpayable",
      "type": "function"
    }
  ],
  "transactionHash": "0x69f228020e7ed14d1059131131147dba41cf1744605918c4db090bae1ea1caf3",
  "args": [
    "0x2Ca8E0C643bDe4C2E08ab1fA0da3401AdAD7734D",
    "100000000000000000",
    "0xd89b2bf150e3b9e13446986e571fb9cab24b13cea0a43ea20a6049a85cc807cc",
    "6730",
    "500000",
    "30"
  ],
  "numDeployments": 3,
  "solcInputHash": "221d0223ea4b1fdd8451ca24cfa72fb3",
  "bytecode": "0x6101606040523480156200001257600080fd5b5060405162001815380380620018158339818101604052810190620000389190620001ad565b858073ffffffffffffffffffffffffffffffffffffffff1660808173ffffffffffffffffffffffffffffffffffffffff1660601b81525050508460a081815250508573ffffffffffffffffffffffffffffffffffffffff1660c08173ffffffffffffffffffffffffffffffffffffffff1660601b815250508360e081815250508267ffffffffffffffff166101008167ffffffffffffffff1660c01b815250508163ffffffff166101208163ffffffff1660e01b815250506000600160146101000a81548160ff02191690836001811115620001195762000118620002b5565b5b0217905550426002819055508061014081815250505050505050506200036b565b6000815190506200014b81620002e9565b92915050565b600081519050620001628162000303565b92915050565b60008151905062000179816200031d565b92915050565b600081519050620001908162000337565b92915050565b600081519050620001a78162000351565b92915050565b60008060008060008060c08789031215620001cd57620001cc620002e4565b5b6000620001dd89828a016200013a565b9650506020620001f089828a0162000168565b95505060406200020389828a0162000151565b94505060606200021689828a0162000196565b93505060806200022989828a016200017f565b92505060a06200023c89828a0162000168565b9150509295509295509295565b6000620002568262000267565b9050919050565b6000819050919050565b600073ffffffffffffffffffffffffffffffffffffffff82169050919050565b6000819050919050565b600063ffffffff82169050919050565b600067ffffffffffffffff82169050919050565b7f4e487b7100000000000000000000000000000000000000000000000000000000600052602160045260246000fd5b600080fd5b620002f48162000249565b81146200030057600080fd5b50565b6200030e816200025d565b81146200031a57600080fd5b50565b620003288162000287565b81146200033457600080fd5b50565b620003428162000291565b81146200034e57600080fd5b50565b6200035c81620002a1565b81146200036857600080fd5b50565b60805160601c60a05160c05160601c60e0516101005160c01c6101205160e01c6101405161142e620003e7600039600081816107a3015261084c01526000610653015260006106300152600061060f015260006105d30152600081816102b401526103b10152600081816102f10152610345015261142e6000f3fe6080604052600436106100a75760003560e01c8063473f1ddc11610064578063473f1ddc1461018957806353a2c19a146101b457806355c9e926146101df5780636e04ff0d1461020a57806391ad27b414610248578063e55ae4e814610273576100a7565b806309bc33a7146100ac578063115cbaf5146100d75780631fe543e3146101025780632cfcc5391461012b578063320229eb146101355780634585e33b14610160575b600080fd5b3480156100b857600080fd5b506100c16102b0565b6040516100ce9190611034565b60405180910390f35b3480156100e357600080fd5b506100ec6102d8565b6040516100f99190611019565b60405180910390f35b34801561010e57600080fd5b5061012960048036038101906101249190610e0d565b6102ef565b005b6101336103af565b005b34801561014157600080fd5b5061014a610512565b6040516101579190611034565b60405180910390f35b34801561016c57600080fd5b5061018760048036038101906101829190610d1d565b61051c565b005b34801561019557600080fd5b5061019e61071b565b6040516101ab9190610f52565b60405180910390f35b3480156101c057600080fd5b506101c9610745565b6040516101d69190611034565b60405180910390f35b3480156101eb57600080fd5b506101f4610754565b6040516102019190611034565b60405180910390f35b34801561021657600080fd5b50610231600480360381019061022c9190610d6a565b610760565b60405161023f929190610f96565b60405180910390f35b34801561025457600080fd5b5061025d610848565b60405161026a9190611034565b60405180910390f35b34801561027f57600080fd5b5061029a60048036038101906102959190610db3565b610870565b6040516102a79190610f52565b60405180910390f35b60007f0000000000000000000000000000000000000000000000000000000000000000905090565b6000600160149054906101000a900460ff16905090565b7f000000000000000000000000000000000000000000000000000000000000000073ffffffffffffffffffffffffffffffffffffffff163373ffffffffffffffffffffffffffffffffffffffff16146103a157337f00000000000000000000000000000000000000000000000000000000000000006040517f1cf993f4000000000000000000000000000000000000000000000000000000008152600401610398929190610f6d565b60405180910390fd5b6103ab82826108b7565b5050565b7f0000000000000000000000000000000000000000000000000000000000000000341015610409576040517f1689dd1100000000000000000000000000000000000000000000000000000000815260040160405180910390fd5b6000600181111561041d5761041c61130e565b5b600160149054906101000a900460ff16600181111561043f5761043e61130e565b5b14610476576040517fd6e19a8d00000000000000000000000000000000000000000000000000000000815260040160405180910390fd5b6000339080600181540180825580915050600190039060005260206000200160009091909190916101000a81548173ffffffffffffffffffffffffffffffffffffffff021916908373ffffffffffffffffffffffffffffffffffffffff1602179055507f0805e1d667bddb8a95f0f09880cf94f403fb596ce79928d9f29b74203ba284d4336040516105089190610f52565b60405180910390a1565b6000600254905090565b600061053660405180602001604052806000815250610760565b509050806105a55747600080549050600160149054906101000a900460ff1660018111156105675761056661130e565b5b6040517fc61de3e100000000000000000000000000000000000000000000000000000000815260040161059c9392919061104f565b60405180910390fd5b60018060146101000a81548160ff021916908360018111156105ca576105c961130e565b5b021790555060007f000000000000000000000000000000000000000000000000000000000000000073ffffffffffffffffffffffffffffffffffffffff16635d3b1d307f00000000000000000000000000000000000000000000000000000000000000007f000000000000000000000000000000000000000000000000000000000000000060037f000000000000000000000000000000000000000000000000000000000000000060016040518663ffffffff1660e01b8152600401610694959493929190610fc6565b602060405180830381600087803b1580156106ae57600080fd5b505af11580156106c2573d6000803e3d6000fd5b505050506040513d601f19601f820116820180604052508101906106e69190610de0565b9050807fcd6e45c8998311cab7e9d4385596cac867e20a0587194b954fa3a731c93ce78b60405160405180910390a250505050565b6000600160009054906101000a900473ffffffffffffffffffffffffffffffffffffffff16905090565b6000600163ffffffff16905090565b60008080549050905090565b600060606000600160149054906101000a900460ff1660018111156107885761078761130e565b5b6000600181111561079c5761079b61130e565b5b14905060007f0000000000000000000000000000000000000000000000000000000000000000600254426107d0919061112f565b119050600080600080549050119050600080471190508380156107f05750825b80156107f95750815b80156108025750805b9550856040518060400160405280600381526020017f30783000000000000000000000000000000000000000000000000000000000008152509550955050505050915091565b60007f0000000000000000000000000000000000000000000000000000000000000000905090565b60008082815481106108855761088461133d565b5b9060005260206000200160009054906101000a900473ffffffffffffffffffffffffffffffffffffffff169050919050565b60008080549050826000815181106108d2576108d161133d565b5b60200260200101516108e4919061127f565b905060008082815481106108fb576108fa61133d565b5b9060005260206000200160009054906101000a900473ffffffffffffffffffffffffffffffffffffffff16905080600160006101000a81548173ffffffffffffffffffffffffffffffffffffffff021916908373ffffffffffffffffffffffffffffffffffffffff1602179055506000600160146101000a81548160ff0219169083600181111561098f5761098e61130e565b5b0217905550600067ffffffffffffffff8111156109af576109ae61136c565b5b6040519080825280602002602001820160405280156109dd5781602001602082028036833780820191505090505b50600090805190602001906109f3929190610ae8565b504260028190555060008173ffffffffffffffffffffffffffffffffffffffff1647604051610a2190610f3d565b60006040518083038185875af1925050503d8060008114610a5e576040519150601f19603f3d011682016040523d82523d6000602084013e610a63565b606091505b5050905080610a9e576040517fba31c4f300000000000000000000000000000000000000000000000000000000815260040160405180910390fd5b8173ffffffffffffffffffffffffffffffffffffffff167f5b690ec4a06fe979403046eaeea5b3ce38524683c3001f662c8b5a829632f7df60405160405180910390a25050505050565b828054828255906000526020600020908101928215610b61579160200282015b82811115610b605782518260006101000a81548173ffffffffffffffffffffffffffffffffffffffff021916908373ffffffffffffffffffffffffffffffffffffffff16021790555091602001919060010190610b08565b5b509050610b6e9190610b72565b5090565b5b80821115610b8b576000816000905550600101610b73565b5090565b6000610ba2610b9d846110ab565b611086565b90508083825260208201905082856020860282011115610bc557610bc46113a5565b5b60005b85811015610bf55781610bdb8882610cf3565b845260208401935060208301925050600181019050610bc8565b5050509392505050565b6000610c12610c0d846110d7565b611086565b905082815260208101848484011115610c2e57610c2d6113aa565b5b610c3984828561120c565b509392505050565b600082601f830112610c5657610c556113a0565b5b8135610c66848260208601610b8f565b91505092915050565b60008083601f840112610c8557610c846113a0565b5b8235905067ffffffffffffffff811115610ca257610ca161139b565b5b602083019150836001820283011115610cbe57610cbd6113a5565b5b9250929050565b600082601f830112610cda57610cd96113a0565b5b8135610cea848260208601610bff565b91505092915050565b600081359050610d02816113e1565b92915050565b600081519050610d17816113e1565b92915050565b60008060208385031215610d3457610d336113b4565b5b600083013567ffffffffffffffff811115610d5257610d516113af565b5b610d5e85828601610c6f565b92509250509250929050565b600060208284031215610d8057610d7f6113b4565b5b600082013567ffffffffffffffff811115610d9e57610d9d6113af565b5b610daa84828501610cc5565b91505092915050565b600060208284031215610dc957610dc86113b4565b5b6000610dd784828501610cf3565b91505092915050565b600060208284031215610df657610df56113b4565b5b6000610e0484828501610d08565b91505092915050565b60008060408385031215610e2457610e236113b4565b5b6000610e3285828601610cf3565b925050602083013567ffffffffffffffff811115610e5357610e526113af565b5b610e5f85828601610c41565b9150509250929050565b610e7281611163565b82525050565b610e8181611175565b82525050565b610e9081611181565b82525050565b6000610ea182611108565b610eab8185611113565b9350610ebb81856020860161121b565b610ec4816113b9565b840191505092915050565b610ed8816111fa565b82525050565b6000610eeb600083611124565b9150610ef6826113ca565b600082019050919050565b610f0a8161119e565b82525050565b610f19816111cc565b82525050565b610f28816111d6565b82525050565b610f37816111e6565b82525050565b6000610f4882610ede565b9150819050919050565b6000602082019050610f676000830184610e69565b92915050565b6000604082019050610f826000830185610e69565b610f8f6020830184610e69565b9392505050565b6000604082019050610fab6000830185610e78565b8181036020830152610fbd8184610e96565b90509392505050565b600060a082019050610fdb6000830188610e87565b610fe86020830187610f2e565b610ff56040830186610f01565b6110026060830185610f1f565b61100f6080830184610f1f565b9695505050505050565b600060208201905061102e6000830184610ecf565b92915050565b60006020820190506110496000830184610f10565b92915050565b60006060820190506110646000830186610f10565b6110716020830185610f10565b61107e6040830184610f10565b949350505050565b60006110906110a1565b905061109c828261124e565b919050565b6000604051905090565b600067ffffffffffffffff8211156110c6576110c561136c565b5b602082029050602081019050919050565b600067ffffffffffffffff8211156110f2576110f161136c565b5b6110fb826113b9565b9050602081019050919050565b600081519050919050565b600082825260208201905092915050565b600081905092915050565b600061113a826111cc565b9150611145836111cc565b925082821015611158576111576112b0565b5b828203905092915050565b600061116e826111ac565b9050919050565b60008115159050919050565b6000819050919050565b6000819050611199826113cd565b919050565b600061ffff82169050919050565b600073ffffffffffffffffffffffffffffffffffffffff82169050919050565b6000819050919050565b600063ffffffff82169050919050565b600067ffffffffffffffff82169050919050565b60006112058261118b565b9050919050565b82818337600083830152505050565b60005b8381101561123957808201518184015260208101905061121e565b83811115611248576000848401525b50505050565b611257826113b9565b810181811067ffffffffffffffff821117156112765761127561136c565b5b80604052505050565b600061128a826111cc565b9150611295836111cc565b9250826112a5576112a46112df565b5b828206905092915050565b7f4e487b7100000000000000000000000000000000000000000000000000000000600052601160045260246000fd5b7f4e487b7100000000000000000000000000000000000000000000000000000000600052601260045260246000fd5b7f4e487b7100000000000000000000000000000000000000000000000000000000600052602160045260246000fd5b7f4e487b7100000000000000000000000000000000000000000000000000000000600052603260045260246000fd5b7f4e487b7100000000000000000000000000000000000000000000000000000000600052604160045260246000fd5b600080fd5b600080fd5b600080fd5b600080fd5b600080fd5b600080fd5b6000601f19601f8301169050919050565b50565b600281106113de576113dd61130e565b5b50565b6113ea816111cc565b81146113f557600080fd5b5056fea264697066735822122018625debeb02bfce764b7d7ed7daffd95932383255fb9ef96a3112088be4ed3764736f6c63430008070033",
  "devdoc": {
    "kind": "dev",
    "methods": {},
    "version": 1
  },
  "userdoc": {
    "kind": "user",
    "methods": {},
    "version": 1
  },
  "storageLayout": {
    "storage": [
      {
        "astId": 203,
        "contract": "contracts/Raffle.sol:Raffle",
        "label": "s_players",
        "offset": 0,
        "slot": "0",
        "type": "t_array(t_address_payable)dyn_storage"
      },
      {
        "astId": 220,
        "contract": "contracts/Raffle.sol:Raffle",
        "label": "s_recentWinner",
        "offset": 0,
        "slot": "1",
        "type": "t_address"
      },
      {
        "astId": 223,
        "contract": "contracts/Raffle.sol:Raffle",
        "label": "s_raffleState",
        "offset": 20,
        "slot": "1",
        "type": "t_enum(RaffleState)198"
      },
      {
        "astId": 225,
        "contract": "contracts/Raffle.sol:Raffle",
        "label": "s_lastTimeStamp",
        "offset": 0,
        "slot": "2",
        "type": "t_uint256"
      }
    ],
    "types": {
      "t_address": {
        "encoding": "inplace",
        "label": "address",
        "numberOfBytes": "20"
      },
      "t_address_payable": {
        "encoding": "inplace",
        "label": "address payable",
        "numberOfBytes": "20"
      },
      "t_array(t_address_payable)dyn_storage": {
        "base": "t_address_payable",
        "encoding": "dynamic_array",
        "label": "address payable[]",
        "numberOfBytes": "32"
      },
      "t_enum(RaffleState)198": {
        "encoding": "inplace",
        "label": "enum Raffle.RaffleState",
        "numberOfBytes": "1"
      },
      "t_uint256": {
        "encoding": "inplace",
        "label": "uint256",
        "numberOfBytes": "32"
      }
    }
  }
}